{
  "contractName": "DEX",
  "abi": [
    {
      "anonymous": false,
      "inputs": [
        {
          "indexed": false,
          "internalType": "uint256",
          "name": "OrderID",
          "type": "uint256"
        },
        {
          "indexed": false,
          "internalType": "uint256",
          "name": "tradeID",
          "type": "uint256"
        },
        {
          "indexed": true,
          "internalType": "bytes32",
          "name": "ticker",
          "type": "bytes32"
        },
        {
          "indexed": true,
          "internalType": "address",
          "name": "trader1",
          "type": "address"
        },
        {
          "indexed": true,
          "internalType": "address",
          "name": "trader2",
          "type": "address"
        },
        {
          "indexed": false,
          "internalType": "uint256",
          "name": "amount",
          "type": "uint256"
        },
        {
          "indexed": false,
          "internalType": "uint256",
          "name": "price",
          "type": "uint256"
        },
        {
          "indexed": false,
          "internalType": "uint256",
          "name": "timestamp",
          "type": "uint256"
        }
      ],
      "name": "NewTrade",
      "type": "event"
    },
    {
      "inputs": [
        {
          "internalType": "bytes32",
          "name": "ticker",
          "type": "bytes32"
        },
        {
          "internalType": "address",
          "name": "tokenAddress",
          "type": "address"
        }
      ],
      "name": "addToken",
      "outputs": [],
      "stateMutability": "nonpayable",
      "type": "function"
    },
    {
      "inputs": [
        {
          "internalType": "bytes32",
          "name": "ticker",
          "type": "bytes32"
        },
        {
          "internalType": "uint256",
          "name": "amount",
          "type": "uint256"
        }
      ],
      "name": "deposit",
      "outputs": [],
      "stateMutability": "nonpayable",
      "type": "function"
    },
    {
      "inputs": [],
      "name": "manager",
      "outputs": [
        {
          "internalType": "address",
          "name": "",
          "type": "address"
        }
      ],
      "stateMutability": "view",
      "type": "function"
    },
    {
      "inputs": [],
      "name": "nextOrderID",
      "outputs": [
        {
          "internalType": "uint256",
          "name": "",
          "type": "uint256"
        }
      ],
      "stateMutability": "view",
      "type": "function"
    },
    {
      "inputs": [],
      "name": "nextTradeID",
      "outputs": [
        {
          "internalType": "uint256",
          "name": "",
          "type": "uint256"
        }
      ],
      "stateMutability": "view",
      "type": "function"
    },
    {
      "inputs": [
        {
          "internalType": "bytes32",
          "name": "",
          "type": "bytes32"
        },
        {
          "internalType": "uint256",
          "name": "",
          "type": "uint256"
        },
        {
          "internalType": "uint256",
          "name": "",
          "type": "uint256"
        }
      ],
      "name": "orderBook",
      "outputs": [
        {
          "internalType": "uint256",
          "name": "ID",
          "type": "uint256"
        },
        {
          "internalType": "address",
          "name": "trader",
          "type": "address"
        },
        {
          "internalType": "enum DEX.Side",
          "name": "side",
          "type": "uint8"
        },
        {
          "internalType": "bytes32",
          "name": "ticker",
          "type": "bytes32"
        },
        {
          "internalType": "uint256",
          "name": "amount",
          "type": "uint256"
        },
        {
          "internalType": "uint256",
          "name": "price",
          "type": "uint256"
        },
        {
          "internalType": "uint256",
          "name": "filled",
          "type": "uint256"
        },
        {
          "internalType": "uint256",
          "name": "timestamp",
          "type": "uint256"
        }
      ],
      "stateMutability": "view",
      "type": "function"
    },
    {
      "inputs": [
        {
          "internalType": "uint256",
          "name": "",
          "type": "uint256"
        }
      ],
      "name": "tokenList",
      "outputs": [
        {
          "internalType": "bytes32",
          "name": "",
          "type": "bytes32"
        }
      ],
      "stateMutability": "view",
      "type": "function"
    },
    {
      "inputs": [
        {
          "internalType": "bytes32",
          "name": "",
          "type": "bytes32"
        }
      ],
      "name": "tokens",
      "outputs": [
        {
          "internalType": "bytes32",
          "name": "ticker",
          "type": "bytes32"
        },
        {
          "internalType": "address",
          "name": "tokenAddress",
          "type": "address"
        }
      ],
      "stateMutability": "view",
      "type": "function"
    },
    {
      "inputs": [
        {
          "internalType": "address",
          "name": "",
          "type": "address"
        },
        {
          "internalType": "bytes32",
          "name": "",
          "type": "bytes32"
        }
      ],
      "name": "traderBalances",
      "outputs": [
        {
          "internalType": "uint256",
          "name": "",
          "type": "uint256"
        }
      ],
      "stateMutability": "view",
      "type": "function"
    },
    {
      "inputs": [
        {
          "internalType": "bytes32",
          "name": "ticker",
          "type": "bytes32"
        },
        {
          "internalType": "uint256",
          "name": "amount",
          "type": "uint256"
        }
      ],
      "name": "withdraw",
      "outputs": [],
      "stateMutability": "nonpayable",
      "type": "function"
    },
    {
      "inputs": [
        {
          "internalType": "bytes32",
          "name": "ticker",
          "type": "bytes32"
        },
        {
          "internalType": "enum DEX.Side",
          "name": "side",
          "type": "uint8"
        }
      ],
      "name": "getOrders",
      "outputs": [
        {
          "components": [
            {
              "internalType": "uint256",
              "name": "ID",
              "type": "uint256"
            },
            {
              "internalType": "address",
              "name": "trader",
              "type": "address"
            },
            {
              "internalType": "enum DEX.Side",
              "name": "side",
              "type": "uint8"
            },
            {
              "internalType": "bytes32",
              "name": "ticker",
              "type": "bytes32"
            },
            {
              "internalType": "uint256",
              "name": "amount",
              "type": "uint256"
            },
            {
              "internalType": "uint256",
              "name": "price",
              "type": "uint256"
            },
            {
              "internalType": "uint256",
              "name": "filled",
              "type": "uint256"
            },
            {
              "internalType": "uint256",
              "name": "timestamp",
              "type": "uint256"
            }
          ],
          "internalType": "struct DEX.Order[]",
          "name": "",
          "type": "tuple[]"
        }
      ],
      "stateMutability": "view",
      "type": "function"
    },
    {
      "inputs": [],
      "name": "getTokens",
      "outputs": [
        {
          "components": [
            {
              "internalType": "bytes32",
              "name": "ticker",
              "type": "bytes32"
            },
            {
              "internalType": "address",
              "name": "tokenAddress",
              "type": "address"
            }
          ],
          "internalType": "struct Wallet.Token[]",
          "name": "",
          "type": "tuple[]"
        }
      ],
      "stateMutability": "view",
      "type": "function"
    },
    {
      "inputs": [
        {
          "internalType": "enum DEX.Side",
          "name": "side",
          "type": "uint8"
        },
        {
          "internalType": "bytes32",
          "name": "ticker",
          "type": "bytes32"
        },
        {
          "internalType": "uint256",
          "name": "amount",
          "type": "uint256"
        },
        {
          "internalType": "uint256",
          "name": "price",
          "type": "uint256"
        }
      ],
      "name": "createLimitOrder",
      "outputs": [],
      "stateMutability": "nonpayable",
      "type": "function"
    },
    {
      "inputs": [
        {
          "internalType": "enum DEX.Side",
          "name": "side",
          "type": "uint8"
        },
        {
          "internalType": "bytes32",
          "name": "ticker",
          "type": "bytes32"
        },
        {
          "internalType": "uint256",
          "name": "amount",
          "type": "uint256"
        }
      ],
      "name": "createMarketOrder",
      "outputs": [],
      "stateMutability": "nonpayable",
      "type": "function"
    }
  ],
  "bytecode": "0x608060405234801561001057600080fd5b50336000806101000a81548173ffffffffffffffffffffffffffffffffffffffff021916908373ffffffffffffffffffffffffffffffffffffffff1602179055506136b2806100606000396000f3fe608060405234801561001057600080fd5b50600436106100ea5760003560e01c806388a6d7021161008c57806399ec2f1c1161006657806399ec2f1c146102635780639ead72221461027f578063aa6ca808146102af578063f47a0acc146102cd576100ea565b806388a6d702146101f8578063904194a3146102165780639776aacf14610247576100ea565b806346e9658b116100c857806346e9658b1461015e578063481c6a751461018e5780636f3b62f9146101ac57806372ce957e146101c8576100ea565b8063040cf020146100ef5780630bb431b61461010b5780631de26e1614610142575b600080fd5b61010960048036038101906101049190612b5c565b6102eb565b005b61012560048036038101906101209190612b98565b610555565b60405161013998979695949392919061327c565b60405180910390f35b61015c60048036038101906101579190612b5c565b6105f4565b005b61017860048036038101906101739190612b20565b6107cd565b6040516101859190613119565b60405180910390f35b6101966109a3565b6040516101a3919061309e565b60405180910390f35b6101c660048036038101906101c19190612c36565b6109c7565b005b6101e260048036038101906101dd9190612a56565b61158e565b6040516101ef9190613261565b60405180910390f35b6102006115b3565b60405161020d9190613261565b60405180910390f35b610230600480360381019061022b9190612abb565b6115b9565b60405161023e929190613178565b60405180910390f35b610261600480360381019061025c9190612ae4565b6115fd565b005b61027d60048036038101906102789190612be7565b61174a565b005b61029960048036038101906102949190612c99565b61279d565b6040516102a6919061315d565b60405180910390f35b6102b76127c1565b6040516102c4919061313b565b60405180910390f35b6102d56129b4565b6040516102e29190613261565b60405180910390f35b81600073ffffffffffffffffffffffffffffffffffffffff166001600083815260200190815260200160002060010160009054906101000a900473ffffffffffffffffffffffffffffffffffffffff1673ffffffffffffffffffffffffffffffffffffffff161415610392576040517f08c379a0000000000000000000000000000000000000000000000000000000008152600401610389906131a1565b60405180910390fd5b81600360003373ffffffffffffffffffffffffffffffffffffffff1673ffffffffffffffffffffffffffffffffffffffff1681526020019081526020016000206000858152602001908152602001600020541015610425576040517f08c379a000000000000000000000000000000000000000000000000000000000815260040161041c906131e1565b60405180910390fd5b81600360003373ffffffffffffffffffffffffffffffffffffffff1673ffffffffffffffffffffffffffffffffffffffff168152602001908152602001600020600085815260200190815260200160002060008282546104859190613480565b925050819055506001600084815260200190815260200160002060010160009054906101000a900473ffffffffffffffffffffffffffffffffffffffff1673ffffffffffffffffffffffffffffffffffffffff1663a9059cbb33846040518363ffffffff1660e01b81526004016104fd9291906130f0565b602060405180830381600087803b15801561051757600080fd5b505af115801561052b573d6000803e3d6000fd5b505050506040513d601f19601f8201168201806040525081019061054f9190612a92565b50505050565b6004602052826000526040600020602052816000526040600020818154811061057d57600080fd5b906000526020600020906007020160009250925050508060000154908060010160009054906101000a900473ffffffffffffffffffffffffffffffffffffffff16908060010160149054906101000a900460ff16908060020154908060030154908060040154908060050154908060060154905088565b81600073ffffffffffffffffffffffffffffffffffffffff166001600083815260200190815260200160002060010160009054906101000a900473ffffffffffffffffffffffffffffffffffffffff1673ffffffffffffffffffffffffffffffffffffffff16141561069b576040517f08c379a0000000000000000000000000000000000000000000000000000000008152600401610692906131a1565b60405180910390fd5b6001600084815260200190815260200160002060010160009054906101000a900473ffffffffffffffffffffffffffffffffffffffff1673ffffffffffffffffffffffffffffffffffffffff166323b872dd3330856040518463ffffffff1660e01b815260040161070e939291906130b9565b602060405180830381600087803b15801561072857600080fd5b505af115801561073c573d6000803e3d6000fd5b505050506040513d601f19601f820116820180604052508101906107609190612a92565b5081600360003373ffffffffffffffffffffffffffffffffffffffff1673ffffffffffffffffffffffffffffffffffffffff168152602001908152602001600020600085815260200190815260200160002060008282546107c191906133d0565b92505081905550505050565b606060046000848152602001908152602001600020600083600181111561081d577f4e487b7100000000000000000000000000000000000000000000000000000000600052602160045260246000fd5b8152602001908152602001600020805480602002602001604051908101604052809291908181526020016000905b82821015610997578382906000526020600020906007020160405180610100016040529081600082015481526020016001820160009054906101000a900473ffffffffffffffffffffffffffffffffffffffff1673ffffffffffffffffffffffffffffffffffffffff1673ffffffffffffffffffffffffffffffffffffffff1681526020016001820160149054906101000a900460ff16600181111561091a577f4e487b7100000000000000000000000000000000000000000000000000000000600052602160045260246000fd5b6001811115610952577f4e487b7100000000000000000000000000000000000000000000000000000000600052602160045260246000fd5b8152602001600282015481526020016003820154815260200160048201548152602001600582015481526020016006820154815250508152602001906001019061084b565b50505050905092915050565b60008054906101000a900473ffffffffffffffffffffffffffffffffffffffff1681565b82600073ffffffffffffffffffffffffffffffffffffffff166001600083815260200190815260200160002060010160009054906101000a900473ffffffffffffffffffffffffffffffffffffffff1673ffffffffffffffffffffffffffffffffffffffff161415610a6e576040517f08c379a0000000000000000000000000000000000000000000000000000000008152600401610a65906131a1565b60405180910390fd5b837f5553444300000000000000000000000000000000000000000000000000000000811415610ad2576040517f08c379a0000000000000000000000000000000000000000000000000000000008152600401610ac990613201565b60405180910390fd5b60006001811115610b0c577f4e487b7100000000000000000000000000000000000000000000000000000000600052602160045260246000fd5b866001811115610b45577f4e487b7100000000000000000000000000000000000000000000000000000000600052602160045260246000fd5b1415610c0e578284610b579190613426565b600360003373ffffffffffffffffffffffffffffffffffffffff1673ffffffffffffffffffffffffffffffffffffffff16815260200190815260200160002060007f55534443000000000000000000000000000000000000000000000000000000008152602001908152602001600020541015610c09576040517f08c379a0000000000000000000000000000000000000000000000000000000008152600401610c0090613221565b60405180910390fd5b610ca2565b83600360003373ffffffffffffffffffffffffffffffffffffffff1673ffffffffffffffffffffffffffffffffffffffff1681526020019081526020016000206000878152602001908152602001600020541015610ca1576040517f08c379a0000000000000000000000000000000000000000000000000000000008152600401610c98906131c1565b60405180910390fd5b5b6000600460008781526020019081526020016000206000886001811115610cf2577f4e487b7100000000000000000000000000000000000000000000000000000000600052602160045260246000fd5b815260200190815260200160002090508060405180610100016040528060055481526020013373ffffffffffffffffffffffffffffffffffffffff168152602001896001811115610d6c577f4e487b7100000000000000000000000000000000000000000000000000000000600052602160045260246000fd5b8152602001888152602001878152602001868152602001600081526020014281525090806001815401808255809150506001900390600052602060002090600702016000909190919091506000820151816000015560208201518160010160006101000a81548173ffffffffffffffffffffffffffffffffffffffff021916908373ffffffffffffffffffffffffffffffffffffffff16021790555060408201518160010160146101000a81548160ff02191690836001811115610e59577f4e487b7100000000000000000000000000000000000000000000000000000000600052602160045260246000fd5b0217905550606082015181600201556080820151816003015560a0820151816004015560c0820151816005015560e082015181600601555050600080828054905011610ea6576000610eb8565b60018280549050610eb79190613480565b5b90505b600081111561156c5760006001811115610efe577f4e487b7100000000000000000000000000000000000000000000000000000000600052602160045260246000fd5b886001811115610f37577f4e487b7100000000000000000000000000000000000000000000000000000000600052602160045260246000fd5b148015610fe35750818181548110610f78577f4e487b7100000000000000000000000000000000000000000000000000000000600052603260045260246000fd5b90600052602060002090600702016004015482600183610f989190613480565b81548110610fcf577f4e487b7100000000000000000000000000000000000000000000000000000000600052603260045260246000fd5b906000526020600020906007020160040154115b15610fed5761156c565b600180811115611026577f4e487b7100000000000000000000000000000000000000000000000000000000600052602160045260246000fd5b88600181111561105f577f4e487b7100000000000000000000000000000000000000000000000000000000600052602160045260246000fd5b14801561110b57508181815481106110a0577f4e487b7100000000000000000000000000000000000000000000000000000000600052603260045260246000fd5b906000526020600020906007020160040154826001836110c09190613480565b815481106110f7577f4e487b7100000000000000000000000000000000000000000000000000000000600052603260045260246000fd5b906000526020600020906007020160040154105b156111155761156c565b6000826001836111259190613480565b8154811061115c577f4e487b7100000000000000000000000000000000000000000000000000000000600052603260045260246000fd5b906000526020600020906007020160405180610100016040529081600082015481526020016001820160009054906101000a900473ffffffffffffffffffffffffffffffffffffffff1673ffffffffffffffffffffffffffffffffffffffff1673ffffffffffffffffffffffffffffffffffffffff1681526020016001820160149054906101000a900460ff166001811115611221577f4e487b7100000000000000000000000000000000000000000000000000000000600052602160045260246000fd5b6001811115611259577f4e487b7100000000000000000000000000000000000000000000000000000000600052602160045260246000fd5b81526020016002820154815260200160038201548152602001600482015481526020016005820154815260200160068201548152505090508282815481106112ca577f4e487b7100000000000000000000000000000000000000000000000000000000600052603260045260246000fd5b9060005260206000209060070201836001846112e69190613480565b8154811061131d577f4e487b7100000000000000000000000000000000000000000000000000000000600052603260045260246000fd5b9060005260206000209060070201600082015481600001556001820160009054906101000a900473ffffffffffffffffffffffffffffffffffffffff168160010160006101000a81548173ffffffffffffffffffffffffffffffffffffffff021916908373ffffffffffffffffffffffffffffffffffffffff1602179055506001820160149054906101000a900460ff168160010160146101000a81548160ff021916908360018111156113fa577f4e487b7100000000000000000000000000000000000000000000000000000000600052602160045260246000fd5b021790555060028201548160020155600382015481600301556004820154816004015560058201548160050155600682015481600601559050508083838154811061146e577f4e487b7100000000000000000000000000000000000000000000000000000000600052603260045260246000fd5b90600052602060002090600702016000820151816000015560208201518160010160006101000a81548173ffffffffffffffffffffffffffffffffffffffff021916908373ffffffffffffffffffffffffffffffffffffffff16021790555060408201518160010160146101000a81548160ff0219169083600181111561151e577f4e487b7100000000000000000000000000000000000000000000000000000000600052602160045260246000fd5b0217905550606082015181600201556080820151816003015560a0820151816004015560c0820151816005015560e0820151816006015590505081806115639061352b565b92505050610ebb565b6005600081548092919061157f90613555565b91905055505050505050505050565b6003602052816000526040600020602052806000526040600020600091509150505481565b60065481565b60016020528060005260406000206000915090508060000154908060010160009054906101000a900473ffffffffffffffffffffffffffffffffffffffff16905082565b60008054906101000a900473ffffffffffffffffffffffffffffffffffffffff1673ffffffffffffffffffffffffffffffffffffffff163373ffffffffffffffffffffffffffffffffffffffff161461168b576040517f08c379a000000000000000000000000000000000000000000000000000000000815260040161168290613241565b60405180910390fd5b60405180604001604052808381526020018273ffffffffffffffffffffffffffffffffffffffff16815250600160008481526020019081526020016000206000820151816000015560208201518160010160006101000a81548173ffffffffffffffffffffffffffffffffffffffff021916908373ffffffffffffffffffffffffffffffffffffffff16021790555090505060028290806001815401808255809150506001900390600052602060002001600090919091909150555050565b81600073ffffffffffffffffffffffffffffffffffffffff166001600083815260200190815260200160002060010160009054906101000a900473ffffffffffffffffffffffffffffffffffffffff1673ffffffffffffffffffffffffffffffffffffffff1614156117f1576040517f08c379a00000000000000000000000000000000000000000000000000000000081526004016117e8906131a1565b60405180910390fd5b827f5553444300000000000000000000000000000000000000000000000000000000811415611855576040517f08c379a000000000000000000000000000000000000000000000000000000000815260040161184c90613201565b60405180910390fd5b60018081111561188e577f4e487b7100000000000000000000000000000000000000000000000000000000600052602160045260246000fd5b8560018111156118c7577f4e487b7100000000000000000000000000000000000000000000000000000000600052602160045260246000fd5b14156119615782600360003373ffffffffffffffffffffffffffffffffffffffff1673ffffffffffffffffffffffffffffffffffffffff1681526020019081526020016000206000868152602001908152602001600020541015611960576040517f08c379a0000000000000000000000000000000000000000000000000000000008152600401611957906131c1565b60405180910390fd5b5b600080600181111561199c577f4e487b7100000000000000000000000000000000000000000000000000000000600052602160045260246000fd5b8660018111156119d5577f4e487b7100000000000000000000000000000000000000000000000000000000600052602160045260246000fd5b14156119e457600190506119e9565b600090505b60006004600087815260200190815260200160002060008381526020019081526020016000209050600085905060005b828054905081108015611a2c5750600082115b15612440576000838281548110611a6c577f4e487b7100000000000000000000000000000000000000000000000000000000600052603260045260246000fd5b906000526020600020906007020160050154848381548110611ab7577f4e487b7100000000000000000000000000000000000000000000000000000000600052603260045260246000fd5b906000526020600020906007020160030154611ad39190613480565b90506000818411611ae45783611ae6565b815b90508084611af49190613480565b935080858481548110611b30577f4e487b7100000000000000000000000000000000000000000000000000000000600052603260045260246000fd5b90600052602060002090600702016005016000828254611b5091906133d0565b925050819055506000858481548110611b92577f4e487b7100000000000000000000000000000000000000000000000000000000600052603260045260246000fd5b90600052602060002090600702016004015482611baf9190613426565b905060006001811115611beb577f4e487b7100000000000000000000000000000000000000000000000000000000600052602160045260246000fd5b8c6001811115611c24577f4e487b7100000000000000000000000000000000000000000000000000000000600052602160045260246000fd5b1415611f925780600360003373ffffffffffffffffffffffffffffffffffffffff1673ffffffffffffffffffffffffffffffffffffffff16815260200190815260200160002060007f55534443000000000000000000000000000000000000000000000000000000008152602001908152602001600020541015611cdd576040517f08c379a0000000000000000000000000000000000000000000000000000000008152600401611cd490613221565b60405180910390fd5b81600360003373ffffffffffffffffffffffffffffffffffffffff1673ffffffffffffffffffffffffffffffffffffffff16815260200190815260200160002060008d81526020019081526020016000206000828254611d3d91906133d0565b9250508190555080600360003373ffffffffffffffffffffffffffffffffffffffff1673ffffffffffffffffffffffffffffffffffffffff16815260200190815260200160002060007f555344430000000000000000000000000000000000000000000000000000000081526020019081526020016000206000828254611dc49190613480565b925050819055508160036000888781548110611e09577f4e487b7100000000000000000000000000000000000000000000000000000000600052603260045260246000fd5b906000526020600020906007020160010160009054906101000a900473ffffffffffffffffffffffffffffffffffffffff1673ffffffffffffffffffffffffffffffffffffffff1673ffffffffffffffffffffffffffffffffffffffff16815260200190815260200160002060008d81526020019081526020016000206000828254611e959190613480565b925050819055508060036000888781548110611eda577f4e487b7100000000000000000000000000000000000000000000000000000000600052603260045260246000fd5b906000526020600020906007020160010160009054906101000a900473ffffffffffffffffffffffffffffffffffffffff1673ffffffffffffffffffffffffffffffffffffffff1673ffffffffffffffffffffffffffffffffffffffff16815260200190815260200160002060007f555344430000000000000000000000000000000000000000000000000000000081526020019081526020016000206000828254611f8691906133d0565b925050819055506122bc565b600180811115611fcb577f4e487b7100000000000000000000000000000000000000000000000000000000600052602160045260246000fd5b8c6001811115612004577f4e487b7100000000000000000000000000000000000000000000000000000000600052602160045260246000fd5b14156122bb5781600360003373ffffffffffffffffffffffffffffffffffffffff1673ffffffffffffffffffffffffffffffffffffffff16815260200190815260200160002060008d8152602001908152602001600020600082825461206a9190613480565b9250508190555080600360003373ffffffffffffffffffffffffffffffffffffffff1673ffffffffffffffffffffffffffffffffffffffff16815260200190815260200160002060007f5553444300000000000000000000000000000000000000000000000000000000815260200190815260200160002060008282546120f191906133d0565b925050819055508160036000888781548110612136577f4e487b7100000000000000000000000000000000000000000000000000000000600052603260045260246000fd5b906000526020600020906007020160010160009054906101000a900473ffffffffffffffffffffffffffffffffffffffff1673ffffffffffffffffffffffffffffffffffffffff1673ffffffffffffffffffffffffffffffffffffffff16815260200190815260200160002060008d815260200190815260200160002060008282546121c291906133d0565b925050819055508060036000888781548110612207577f4e487b7100000000000000000000000000000000000000000000000000000000600052603260045260246000fd5b906000526020600020906007020160010160009054906101000a900473ffffffffffffffffffffffffffffffffffffffff1673ffffffffffffffffffffffffffffffffffffffff1673ffffffffffffffffffffffffffffffffffffffff16815260200190815260200160002060007f5553444300000000000000000000000000000000000000000000000000000000815260200190815260200160002060008282546122b39190613480565b925050819055505b5b3373ffffffffffffffffffffffffffffffffffffffff1686858154811061230c577f4e487b7100000000000000000000000000000000000000000000000000000000600052603260045260246000fd5b906000526020600020906007020160010160009054906101000a900473ffffffffffffffffffffffffffffffffffffffff1673ffffffffffffffffffffffffffffffffffffffff168c7fdb0c486e680ba8026643e6a85f8d157b5e7bcd4b32b54d564542570a9eb204166006548a89815481106123b2577f4e487b7100000000000000000000000000000000000000000000000000000000600052603260045260246000fd5b906000526020600020906007020160000154878c8b815481106123fe577f4e487b7100000000000000000000000000000000000000000000000000000000600052603260045260246000fd5b906000526020600020906007020160040154426040516124229594939291906132fa565b60405180910390a4505050808061243890613555565b915050611a19565b5060005b8280549050811080156124ea575082818154811061248b577f4e487b7100000000000000000000000000000000000000000000000000000000600052603260045260246000fd5b9060005260206000209060070201600301548382815481106124d6577f4e487b7100000000000000000000000000000000000000000000000000000000600052603260045260246000fd5b906000526020600020906007020160050154145b156127925760008190505b600184805490506125069190613480565b8110156126c3578360018261251b91906133d0565b81548110612552577f4e487b7100000000000000000000000000000000000000000000000000000000600052603260045260246000fd5b9060005260206000209060070201848281548110612599577f4e487b7100000000000000000000000000000000000000000000000000000000600052603260045260246000fd5b9060005260206000209060070201600082015481600001556001820160009054906101000a900473ffffffffffffffffffffffffffffffffffffffff168160010160006101000a81548173ffffffffffffffffffffffffffffffffffffffff021916908373ffffffffffffffffffffffffffffffffffffffff1602179055506001820160149054906101000a900460ff168160010160146101000a81548160ff02191690836001811115612676577f4e487b7100000000000000000000000000000000000000000000000000000000600052602160045260246000fd5b0217905550600282015481600201556003820154816003015560048201548160040155600582015481600501556006820154816006015590505080806126bb90613555565b9150506124f5565b50828054806126fb577f4e487b7100000000000000000000000000000000000000000000000000000000600052603160045260246000fd5b60019003818190600052602060002090600702016000808201600090556001820160006101000a81549073ffffffffffffffffffffffffffffffffffffffff02191690556001820160146101000a81549060ff02191690556002820160009055600382016000905560048201600090556005820160009055600682016000905550509055808061278a90613555565b915050612444565b505050505050505050565b600281815481106127ad57600080fd5b906000526020600020016000915090505481565b6060600060028054905067ffffffffffffffff81111561280a577f4e487b7100000000000000000000000000000000000000000000000000000000600052604160045260246000fd5b60405190808252806020026020018201604052801561284357816020015b6128306129ba565b8152602001906001900390816128285790505b50905060005b6002805490508110156129ac576040518060400160405280600160006002858154811061289f577f4e487b7100000000000000000000000000000000000000000000000000000000600052603260045260246000fd5b9060005260206000200154815260200190815260200160002060000154815260200160016000600285815481106128ff577f4e487b7100000000000000000000000000000000000000000000000000000000600052603260045260246000fd5b9060005260206000200154815260200190815260200160002060010160009054906101000a900473ffffffffffffffffffffffffffffffffffffffff1673ffffffffffffffffffffffffffffffffffffffff1681525082828151811061298e577f4e487b7100000000000000000000000000000000000000000000000000000000600052603260045260246000fd5b602002602001018190525080806129a490613555565b915050612849565b508091505090565b60055481565b604051806040016040528060008019168152602001600073ffffffffffffffffffffffffffffffffffffffff1681525090565b6000813590506129fc81613610565b92915050565b600081519050612a1181613627565b92915050565b600081359050612a268161363e565b92915050565b600081359050612a3b81613655565b92915050565b600081359050612a5081613665565b92915050565b60008060408385031215612a6957600080fd5b6000612a77858286016129ed565b9250506020612a8885828601612a17565b9150509250929050565b600060208284031215612aa457600080fd5b6000612ab284828501612a02565b91505092915050565b600060208284031215612acd57600080fd5b6000612adb84828501612a17565b91505092915050565b60008060408385031215612af757600080fd5b6000612b0585828601612a17565b9250506020612b16858286016129ed565b9150509250929050565b60008060408385031215612b3357600080fd5b6000612b4185828601612a17565b9250506020612b5285828601612a2c565b9150509250929050565b60008060408385031215612b6f57600080fd5b6000612b7d85828601612a17565b9250506020612b8e85828601612a41565b9150509250929050565b600080600060608486031215612bad57600080fd5b6000612bbb86828701612a17565b9350506020612bcc86828701612a41565b9250506040612bdd86828701612a41565b9150509250925092565b600080600060608486031215612bfc57600080fd5b6000612c0a86828701612a2c565b9350506020612c1b86828701612a17565b9250506040612c2c86828701612a41565b9150509250925092565b60008060008060808587031215612c4c57600080fd5b6000612c5a87828801612a2c565b9450506020612c6b87828801612a17565b9350506040612c7c87828801612a41565b9250506060612c8d87828801612a41565b91505092959194509250565b600060208284031215612cab57600080fd5b6000612cb984828501612a41565b91505092915050565b6000612cce8383612faf565b6101008301905092915050565b6000612ce78383613051565b60408301905092915050565b612cfc816134b4565b82525050565b612d0b816134b4565b82525050565b6000612d1c8261336d565b612d26818561339d565b9350612d318361334d565b8060005b83811015612d62578151612d498882612cc2565b9750612d5483613383565b925050600181019050612d35565b5085935050505092915050565b6000612d7a82613378565b612d8481856133ae565b9350612d8f8361335d565b8060005b83811015612dc0578151612da78882612cdb565b9750612db283613390565b925050600181019050612d93565b5085935050505092915050565b612dd6816134d2565b82525050565b612de5816134d2565b82525050565b612df481613519565b82525050565b612e0381613519565b82525050565b6000612e16601f836133bf565b91507f4552524f523a205468697320746f6b656e20646f65736e2774206578697374006000830152602082019050919050565b6000612e566021836133bf565b91507f4552524f523a20496e73756666696369656e7420746f6b656e2062616c616e6360008301527f65000000000000000000000000000000000000000000000000000000000000006020830152604082019050919050565b6000612ebc601b836133bf565b91507f4552524f523a20496e73756666696369656e742062616c616e636500000000006000830152602082019050919050565b6000612efc601c836133bf565b91507f4552524f523a20555344432063616e6e6f7420626520747261646564000000006000830152602082019050919050565b6000612f3c6020836133bf565b91507f4552524f523a20496e73756666696369656e7420555344432062616c616e63656000830152602082019050919050565b6000612f7c601b836133bf565b91507f4552524f523a204f6e6c79206d616e6167657220616c6c6f77656400000000006000830152602082019050919050565b61010082016000820151612fc66000850182613080565b506020820151612fd96020850182612cf3565b506040820151612fec6040850182612deb565b506060820151612fff6060850182612dcd565b5060808201516130126080850182613080565b5060a082015161302560a0850182613080565b5060c082015161303860c0850182613080565b5060e082015161304b60e0850182613080565b50505050565b6040820160008201516130676000850182612dcd565b50602082015161307a6020850182612cf3565b50505050565b6130898161350f565b82525050565b6130988161350f565b82525050565b60006020820190506130b36000830184612d02565b92915050565b60006060820190506130ce6000830186612d02565b6130db6020830185612d02565b6130e8604083018461308f565b949350505050565b60006040820190506131056000830185612d02565b613112602083018461308f565b9392505050565b600060208201905081810360008301526131338184612d11565b905092915050565b600060208201905081810360008301526131558184612d6f565b905092915050565b60006020820190506131726000830184612ddc565b92915050565b600060408201905061318d6000830185612ddc565b61319a6020830184612d02565b9392505050565b600060208201905081810360008301526131ba81612e09565b9050919050565b600060208201905081810360008301526131da81612e49565b9050919050565b600060208201905081810360008301526131fa81612eaf565b9050919050565b6000602082019050818103600083015261321a81612eef565b9050919050565b6000602082019050818103600083015261323a81612f2f565b9050919050565b6000602082019050818103600083015261325a81612f6f565b9050919050565b6000602082019050613276600083018461308f565b92915050565b600061010082019050613292600083018b61308f565b61329f602083018a612d02565b6132ac6040830189612dfa565b6132b96060830188612ddc565b6132c6608083018761308f565b6132d360a083018661308f565b6132e060c083018561308f565b6132ed60e083018461308f565b9998505050505050505050565b600060a08201905061330f600083018861308f565b61331c602083018761308f565b613329604083018661308f565b613336606083018561308f565b613343608083018461308f565b9695505050505050565b6000819050602082019050919050565b6000819050602082019050919050565b600081519050919050565b600081519050919050565b6000602082019050919050565b6000602082019050919050565b600082825260208201905092915050565b600082825260208201905092915050565b600082825260208201905092915050565b60006133db8261350f565b91506133e68361350f565b9250827fffffffffffffffffffffffffffffffffffffffffffffffffffffffffffffffff0382111561341b5761341a61359e565b5b828201905092915050565b60006134318261350f565b915061343c8361350f565b9250817fffffffffffffffffffffffffffffffffffffffffffffffffffffffffffffffff04831182151516156134755761347461359e565b5b828202905092915050565b600061348b8261350f565b91506134968361350f565b9250828210156134a9576134a861359e565b5b828203905092915050565b60006134bf826134ef565b9050919050565b60008115159050919050565b6000819050919050565b60008190506134ea826135fc565b919050565b600073ffffffffffffffffffffffffffffffffffffffff82169050919050565b6000819050919050565b6000613524826134dc565b9050919050565b60006135368261350f565b9150600082141561354a5761354961359e565b5b600182039050919050565b60006135608261350f565b91507fffffffffffffffffffffffffffffffffffffffffffffffffffffffffffffffff8214156135935761359261359e565b5b600182019050919050565b7f4e487b7100000000000000000000000000000000000000000000000000000000600052601160045260246000fd5b7f4e487b7100000000000000000000000000000000000000000000000000000000600052602160045260246000fd5b6002811061360d5761360c6135cd565b5b50565b613619816134b4565b811461362457600080fd5b50565b613630816134c6565b811461363b57600080fd5b50565b613647816134d2565b811461365257600080fd5b50565b6002811061366257600080fd5b50565b61366e8161350f565b811461367957600080fd5b5056fea26469706673582212206be29bcc85d06bd030bc7dd0d938d8518bd6c73b15c2d10b35e2ec9a819f8b4064736f6c63430008000033",
  "immutableReferences": {},
  "source": "//SPDX-License-Identifier: GPL-3.0\r\n\r\npragma solidity ^0.8.0;\r\n\r\nimport \"./Wallet.sol\";\r\n\r\n\r\ncontract DEX is Wallet {\r\n\r\n    struct Order {\r\n        uint ID;\r\n        address trader;\r\n        Side side;\r\n        bytes32 ticker;\r\n        uint amount;\r\n        uint price;\r\n        uint filled;\r\n        uint timestamp;\r\n    }\r\n\r\n    enum Side {\r\n        BUY, SELL\r\n    }\r\n\r\n    mapping(bytes32 => mapping(uint => Order[])) public orderBook;\r\n\r\n    uint public nextOrderID;\r\n    uint public nextTradeID;\r\n    bytes32 constant USDC = bytes32(\"USDC\");\r\n\r\n    event NewTrade(\r\n        uint OrderID, \r\n        uint tradeID, \r\n        bytes32 indexed ticker, \r\n        address indexed trader1, \r\n        address indexed trader2,\r\n        uint amount,\r\n        uint price,\r\n        uint timestamp\r\n        );\r\n\r\n    modifier notUSDC(bytes32 ticker) {\r\n        require(ticker !=USDC, \"ERROR: USDC cannot be traded\");\r\n        _;\r\n    }\r\n\r\n    function getOrders(bytes32 ticker, Side side) external view returns(Order[] memory) {\r\n        return orderBook[ticker][uint(side)];\r\n    }\r\n\r\n    function getTokens() external view returns(Token[] memory) {\r\n        Token[] memory _tokens = new Token[](tokenList.length);\r\n        for (uint i = 0; i < tokenList.length; i++) {\r\n            _tokens[i] = Token(\r\n            tokens[tokenList[i]].ticker,\r\n            tokens[tokenList[i]].tokenAddress\r\n        );\r\n      }\r\n      return _tokens;\r\n    }\r\n\r\n    function createLimitOrder(Side side, bytes32 ticker, uint amount, uint price) external isToken(ticker) notUSDC(ticker) {\r\n        if(side == Side.BUY) {\r\n            require(traderBalances[msg.sender][USDC] >= amount * price, \"ERROR: Insufficient USDC balance\");\r\n        } else {\r\n            require(traderBalances[msg.sender][ticker] >= amount, \"ERROR: Insufficient token balance\");\r\n        }\r\n\r\n        Order[] storage orders = orderBook[ticker][uint(side)];\r\n        orders.push(Order(nextOrderID, msg.sender, side, ticker, amount, price, 0, block.timestamp));\r\n\r\n        // Sorting algorithm\r\n        uint i = orders.length > 0 ? orders.length - 1 : 0;\r\n        while(i > 0) {\r\n            if(side == Side.BUY && orders[i - 1].price > orders[i].price) {\r\n                break;   \r\n            } \r\n            else if(side == Side.SELL && orders[i - 1].price < orders[i].price) {\r\n                break;\r\n            }\r\n            Order memory order = orders[i - 1];\r\n            orders[i - 1] = orders[i];\r\n            orders[i] = order;\r\n            i--; \r\n        }\r\n        nextOrderID++;  \r\n    }\r\n\r\n    function createMarketOrder(Side side, bytes32 ticker, uint amount) external isToken(ticker) notUSDC(ticker) {\r\n        if(side == Side.SELL) {\r\n            require(traderBalances[msg.sender][ticker] >= amount, \"ERROR: Insufficient token balance\");\r\n        }\r\n\r\n        uint orderBookSide;\r\n        if(side == Side.BUY) {\r\n            orderBookSide = 1;\r\n        } else {\r\n            orderBookSide = 0;\r\n        }\r\n\r\n        Order[] storage orders = orderBook[ticker][orderBookSide];\r\n\r\n        uint remaining = amount;\r\n\r\n        for(uint i=0; i < orders.length && remaining > 0; i++) {\r\n            uint available = orders[i].amount - orders[i].filled;\r\n            uint filled = remaining > available ? available : remaining;\r\n            remaining -= filled;\r\n            orders[i].filled += filled;\r\n            \r\n            uint cost = filled * orders[i].price;  \r\n\r\n            if(side == Side.BUY) {\r\n                require(traderBalances[msg.sender][USDC] >= cost, \"ERROR: Insufficient USDC balance\");\r\n\r\n                traderBalances[msg.sender][ticker] += filled;\r\n                traderBalances[msg.sender][USDC] -= cost;\r\n                traderBalances[orders[i].trader][ticker] -= filled;\r\n                traderBalances[orders[i].trader][USDC] += cost;\r\n            } \r\n            else if(side == Side.SELL) {\r\n                traderBalances[msg.sender][ticker] -= filled;\r\n                traderBalances[msg.sender][USDC] += cost;\r\n                traderBalances[orders[i].trader][ticker] += filled;\r\n                traderBalances[orders[i].trader][USDC] -= cost;\r\n            }\r\n\r\n            emit NewTrade(nextTradeID, orders[i].ID, ticker, orders[i].trader, msg.sender, filled, orders[i].price, block.timestamp);\r\n        }\r\n\r\n        //Removing 100% filled orders from the orderbook\r\n        for(uint i = 0; i < orders.length && orders[i].filled == orders[i].amount; i++) {\r\n            for(uint j = i; j < orders.length - 1; j++ ) {\r\n                orders[j] = orders[j + 1];\r\n            }\r\n            orders.pop();\r\n        }\r\n    }\r\n}",
  "sourcePath": "C:/Users/zrinc/Projects/DEX/contracts/DEX.sol",
  "compiler": {
    "name": "solc",
    "version": "0.8.0+commit.c7dfd78e.Emscripten.clang"
  },
  "schemaVersion": "3.4.1",
  "updatedAt": "2022-01-04T00:28:32.632Z",
  "devdoc": {
    "kind": "dev",
    "methods": {},
    "version": 1
  },
  "userdoc": {
    "kind": "user",
    "methods": {},
    "version": 1
  }
}