{
  "contractName": "Wallet",
  "abi": [
    {
      "inputs": [],
      "stateMutability": "nonpayable",
      "type": "constructor"
    },
    {
      "inputs": [],
      "name": "manager",
      "outputs": [
        {
          "internalType": "address",
          "name": "",
          "type": "address"
        }
      ],
      "stateMutability": "view",
      "type": "function"
    },
    {
      "inputs": [
        {
          "internalType": "uint256",
          "name": "",
          "type": "uint256"
        }
      ],
      "name": "tokenList",
      "outputs": [
        {
          "internalType": "bytes32",
          "name": "",
          "type": "bytes32"
        }
      ],
      "stateMutability": "view",
      "type": "function"
    },
    {
      "inputs": [
        {
          "internalType": "bytes32",
          "name": "",
          "type": "bytes32"
        }
      ],
      "name": "tokens",
      "outputs": [
        {
          "internalType": "bytes32",
          "name": "ticker",
          "type": "bytes32"
        },
        {
          "internalType": "address",
          "name": "tokenAddress",
          "type": "address"
        }
      ],
      "stateMutability": "view",
      "type": "function"
    },
    {
      "inputs": [
        {
          "internalType": "address",
          "name": "",
          "type": "address"
        },
        {
          "internalType": "bytes32",
          "name": "",
          "type": "bytes32"
        }
      ],
      "name": "traderBalances",
      "outputs": [
        {
          "internalType": "uint256",
          "name": "",
          "type": "uint256"
        }
      ],
      "stateMutability": "view",
      "type": "function"
    },
    {
      "inputs": [
        {
          "internalType": "bytes32",
          "name": "ticker",
          "type": "bytes32"
        },
        {
          "internalType": "address",
          "name": "tokenAddress",
          "type": "address"
        }
      ],
      "name": "addToken",
      "outputs": [],
      "stateMutability": "nonpayable",
      "type": "function"
    },
    {
      "inputs": [
        {
          "internalType": "bytes32",
          "name": "ticker",
          "type": "bytes32"
        },
        {
          "internalType": "uint256",
          "name": "amount",
          "type": "uint256"
        }
      ],
      "name": "deposit",
      "outputs": [],
      "stateMutability": "nonpayable",
      "type": "function"
    },
    {
      "inputs": [
        {
          "internalType": "bytes32",
          "name": "ticker",
          "type": "bytes32"
        },
        {
          "internalType": "uint256",
          "name": "amount",
          "type": "uint256"
        }
      ],
      "name": "withdraw",
      "outputs": [],
      "stateMutability": "nonpayable",
      "type": "function"
    }
  ],
  "bytecode": "0x608060405234801561001057600080fd5b50336000806101000a81548173ffffffffffffffffffffffffffffffffffffffff021916908373ffffffffffffffffffffffffffffffffffffffff160217905550610d1e806100606000396000f3fe608060405234801561001057600080fd5b506004361061007d5760003560e01c806372ce957e1161005b57806372ce957e146100d8578063904194a3146101085780639776aacf146101395780639ead7222146101555761007d565b8063040cf020146100825780631de26e161461009e578063481c6a75146100ba575b600080fd5b61009c600480360381019061009791906108e4565b610185565b005b6100b860048036038101906100b391906108e4565b6103ef565b005b6100c26105c8565b6040516100cf9190610a36565b60405180910390f35b6100f260048036038101906100ed919061081a565b6105ec565b6040516100ff9190610b55565b60405180910390f35b610122600480360381019061011d919061087f565b610611565b604051610130929190610acc565b60405180910390f35b610153600480360381019061014e91906108a8565b610655565b005b61016f600480360381019061016a9190610920565b6107a2565b60405161017c9190610ab1565b60405180910390f35b81600073ffffffffffffffffffffffffffffffffffffffff166001600083815260200190815260200160002060010160009054906101000a900473ffffffffffffffffffffffffffffffffffffffff1673ffffffffffffffffffffffffffffffffffffffff16141561022c576040517f08c379a000000000000000000000000000000000000000000000000000000000815260040161022390610af5565b60405180910390fd5b81600360003373ffffffffffffffffffffffffffffffffffffffff1673ffffffffffffffffffffffffffffffffffffffff16815260200190815260200160002060008581526020019081526020016000205410156102bf576040517f08c379a00000000000000000000000000000000000000000000000000000000081526004016102b690610b15565b60405180910390fd5b81600360003373ffffffffffffffffffffffffffffffffffffffff1673ffffffffffffffffffffffffffffffffffffffff1681526020019081526020016000206000858152602001908152602001600020600082825461031f9190610bd7565b925050819055506001600084815260200190815260200160002060010160009054906101000a900473ffffffffffffffffffffffffffffffffffffffff1673ffffffffffffffffffffffffffffffffffffffff1663a9059cbb33846040518363ffffffff1660e01b8152600401610397929190610a88565b602060405180830381600087803b1580156103b157600080fd5b505af11580156103c5573d6000803e3d6000fd5b505050506040513d601f19601f820116820180604052508101906103e99190610856565b50505050565b81600073ffffffffffffffffffffffffffffffffffffffff166001600083815260200190815260200160002060010160009054906101000a900473ffffffffffffffffffffffffffffffffffffffff1673ffffffffffffffffffffffffffffffffffffffff161415610496576040517f08c379a000000000000000000000000000000000000000000000000000000000815260040161048d90610af5565b60405180910390fd5b6001600084815260200190815260200160002060010160009054906101000a900473ffffffffffffffffffffffffffffffffffffffff1673ffffffffffffffffffffffffffffffffffffffff166323b872dd3330856040518463ffffffff1660e01b815260040161050993929190610a51565b602060405180830381600087803b15801561052357600080fd5b505af1158015610537573d6000803e3d6000fd5b505050506040513d601f19601f8201168201806040525081019061055b9190610856565b5081600360003373ffffffffffffffffffffffffffffffffffffffff1673ffffffffffffffffffffffffffffffffffffffff168152602001908152602001600020600085815260200190815260200160002060008282546105bc9190610b81565b92505081905550505050565b60008054906101000a900473ffffffffffffffffffffffffffffffffffffffff1681565b6003602052816000526040600020602052806000526040600020600091509150505481565b60016020528060005260406000206000915090508060000154908060010160009054906101000a900473ffffffffffffffffffffffffffffffffffffffff16905082565b60008054906101000a900473ffffffffffffffffffffffffffffffffffffffff1673ffffffffffffffffffffffffffffffffffffffff163373ffffffffffffffffffffffffffffffffffffffff16146106e3576040517f08c379a00000000000000000000000000000000000000000000000000000000081526004016106da90610b35565b60405180910390fd5b60405180604001604052808381526020018273ffffffffffffffffffffffffffffffffffffffff16815250600160008481526020019081526020016000206000820151816000015560208201518160010160006101000a81548173ffffffffffffffffffffffffffffffffffffffff021916908373ffffffffffffffffffffffffffffffffffffffff16021790555090505060028290806001815401808255809150506001900390600052602060002001600090919091909150555050565b600281815481106107b257600080fd5b906000526020600020016000915090505481565b6000813590506107d581610c8c565b92915050565b6000815190506107ea81610ca3565b92915050565b6000813590506107ff81610cba565b92915050565b60008135905061081481610cd1565b92915050565b6000806040838503121561082d57600080fd5b600061083b858286016107c6565b925050602061084c858286016107f0565b9150509250929050565b60006020828403121561086857600080fd5b6000610876848285016107db565b91505092915050565b60006020828403121561089157600080fd5b600061089f848285016107f0565b91505092915050565b600080604083850312156108bb57600080fd5b60006108c9858286016107f0565b92505060206108da858286016107c6565b9150509250929050565b600080604083850312156108f757600080fd5b6000610905858286016107f0565b925050602061091685828601610805565b9150509250929050565b60006020828403121561093257600080fd5b600061094084828501610805565b91505092915050565b61095281610c0b565b82525050565b61096181610c29565b82525050565b6000610974601f83610b70565b91507f4552524f523a205468697320746f6b656e20646f65736e2774206578697374006000830152602082019050919050565b60006109b4601b83610b70565b91507f4552524f523a20496e73756666696369656e742062616c616e636500000000006000830152602082019050919050565b60006109f4601b83610b70565b91507f4552524f523a204f6e6c79206d616e6167657220616c6c6f77656400000000006000830152602082019050919050565b610a3081610c53565b82525050565b6000602082019050610a4b6000830184610949565b92915050565b6000606082019050610a666000830186610949565b610a736020830185610949565b610a806040830184610a27565b949350505050565b6000604082019050610a9d6000830185610949565b610aaa6020830184610a27565b9392505050565b6000602082019050610ac66000830184610958565b92915050565b6000604082019050610ae16000830185610958565b610aee6020830184610949565b9392505050565b60006020820190508181036000830152610b0e81610967565b9050919050565b60006020820190508181036000830152610b2e816109a7565b9050919050565b60006020820190508181036000830152610b4e816109e7565b9050919050565b6000602082019050610b6a6000830184610a27565b92915050565b600082825260208201905092915050565b6000610b8c82610c53565b9150610b9783610c53565b9250827fffffffffffffffffffffffffffffffffffffffffffffffffffffffffffffffff03821115610bcc57610bcb610c5d565b5b828201905092915050565b6000610be282610c53565b9150610bed83610c53565b925082821015610c0057610bff610c5d565b5b828203905092915050565b6000610c1682610c33565b9050919050565b60008115159050919050565b6000819050919050565b600073ffffffffffffffffffffffffffffffffffffffff82169050919050565b6000819050919050565b7f4e487b7100000000000000000000000000000000000000000000000000000000600052601160045260246000fd5b610c9581610c0b565b8114610ca057600080fd5b50565b610cac81610c1d565b8114610cb757600080fd5b50565b610cc381610c29565b8114610cce57600080fd5b50565b610cda81610c53565b8114610ce557600080fd5b5056fea2646970667358221220a1b2b580d13d83f882d8beccb9fc525d9dea0bbd196b61ed1e84a16b9171a62d64736f6c63430008000033",
  "immutableReferences": {},
  "source": "//SPDX-License-Identifier: GPL-3.0\r\n\r\npragma solidity ^0.8.0;\r\n\r\nimport \"../node_modules/@openzeppelin/contracts/token/ERC20/IERC20.sol\";\r\n\r\n\r\ncontract Wallet {\r\n\r\n    address public manager;\r\n\r\n    struct Token {\r\n        bytes32 ticker;\r\n        address tokenAddress;\r\n    }\r\n\r\n    mapping(bytes32 => Token) public tokens;\r\n    bytes32[] public tokenList;\r\n    mapping(address => mapping(bytes32 => uint)) public traderBalances;\r\n\r\n    modifier onlyManager() {\r\n        require(msg.sender == manager, \"ERROR: Only manager allowed\");\r\n        _;\r\n    }\r\n\r\n    modifier isToken(bytes32 token) {\r\n        require(tokens[token].tokenAddress != address(0), \"ERROR: This token doesn't exist\");\r\n        _;\r\n    }\r\n\r\n    constructor () {\r\n        manager = msg.sender;\r\n    }\r\n\r\n    function addToken(bytes32 ticker, address tokenAddress) external onlyManager {\r\n        tokens[ticker] = Token(ticker, tokenAddress);\r\n        tokenList.push(ticker);\r\n    } \r\n\r\n    function deposit(bytes32 ticker, uint amount) external isToken(ticker) {\r\n        IERC20(tokens[ticker].tokenAddress).transferFrom(msg.sender, address(this), amount);\r\n        traderBalances[msg.sender][ticker] += amount;\r\n    }\r\n\r\n    function withdraw(bytes32 ticker, uint amount) external isToken(ticker) {\r\n        require(traderBalances[msg.sender][ticker] >= amount, \"ERROR: Insufficient balance\");\r\n        traderBalances[msg.sender][ticker] -= amount;\r\n        IERC20(tokens[ticker].tokenAddress).transfer(msg.sender, amount);\r\n    }\r\n\r\n}\r\n\r\n\r\n\r\n",
  "sourcePath": "C:/Users/zrinc/Projects/DEX/contracts/Wallet.sol",
  "compiler": {
    "name": "solc",
    "version": "0.8.0+commit.c7dfd78e.Emscripten.clang"
  },
  "schemaVersion": "3.4.1",
  "updatedAt": "2022-01-04T00:28:50.404Z",
  "devdoc": {
    "kind": "dev",
    "methods": {},
    "version": 1
  },
  "userdoc": {
    "kind": "user",
    "methods": {},
    "version": 1
  }
}